{
  "contractName": "TotemAuction",
  "abi": [
    {
      "inputs": [
        {
          "internalType": "contract TotemNFT",
          "name": "_totemNFT",
          "type": "address"
        },
        {
          "internalType": "contract TotemToken",
          "name": "_totemToken",
          "type": "address"
        }
      ],
      "stateMutability": "nonpayable",
      "type": "constructor"
    },
    {
      "anonymous": false,
      "inputs": [
        {
          "indexed": false,
          "internalType": "uint256",
          "name": "_index",
          "type": "uint256"
        },
        {
          "indexed": false,
          "internalType": "address",
          "name": "_bidder",
          "type": "address"
        },
        {
          "indexed": false,
          "internalType": "uint256",
          "name": "amount",
          "type": "uint256"
        }
      ],
      "name": "Auction_BID",
      "type": "event"
    },
    {
      "anonymous": false,
      "inputs": [
        {
          "indexed": false,
          "internalType": "uint256",
          "name": "_index",
          "type": "uint256"
        }
      ],
      "name": "Auction_Created",
      "type": "event"
    },
    {
      "anonymous": false,
      "inputs": [
        {
          "indexed": false,
          "internalType": "uint256",
          "name": "auctionIndex",
          "type": "uint256"
        }
      ],
      "name": "BurnTEM",
      "type": "event"
    },
    {
      "anonymous": false,
      "inputs": [
        {
          "indexed": false,
          "internalType": "uint256",
          "name": "auctionIndex",
          "type": "uint256"
        },
        {
          "indexed": false,
          "internalType": "address",
          "name": "claimer",
          "type": "address"
        }
      ],
      "name": "ClaimTOTEM",
      "type": "event"
    },
    {
      "anonymous": false,
      "inputs": [
        {
          "indexed": true,
          "internalType": "address",
          "name": "previousOwner",
          "type": "address"
        },
        {
          "indexed": true,
          "internalType": "address",
          "name": "newOwner",
          "type": "address"
        }
      ],
      "name": "OwnershipTransferred",
      "type": "event"
    },
    {
      "inputs": [],
      "name": "BURNADDRESS",
      "outputs": [
        {
          "internalType": "address",
          "name": "",
          "type": "address"
        }
      ],
      "stateMutability": "view",
      "type": "function"
    },
    {
      "inputs": [],
      "name": "owner",
      "outputs": [
        {
          "internalType": "address",
          "name": "",
          "type": "address"
        }
      ],
      "stateMutability": "view",
      "type": "function"
    },
    {
      "inputs": [],
      "name": "renounceOwnership",
      "outputs": [],
      "stateMutability": "nonpayable",
      "type": "function"
    },
    {
      "inputs": [],
      "name": "totemNFT",
      "outputs": [
        {
          "internalType": "contract TotemNFT",
          "name": "",
          "type": "address"
        }
      ],
      "stateMutability": "view",
      "type": "function"
    },
    {
      "inputs": [],
      "name": "totemToken",
      "outputs": [
        {
          "internalType": "contract TotemToken",
          "name": "",
          "type": "address"
        }
      ],
      "stateMutability": "view",
      "type": "function"
    },
    {
      "inputs": [
        {
          "internalType": "address",
          "name": "newOwner",
          "type": "address"
        }
      ],
      "name": "transferOwnership",
      "outputs": [],
      "stateMutability": "nonpayable",
      "type": "function"
    },
    {
      "inputs": [
        {
          "internalType": "uint256",
          "name": "_assetId",
          "type": "uint256"
        },
        {
          "internalType": "uint256",
          "name": "_startPrice",
          "type": "uint256"
        },
        {
          "internalType": "uint256",
          "name": "_startTime",
          "type": "uint256"
        },
        {
          "internalType": "uint256",
          "name": "_duration",
          "type": "uint256"
        }
      ],
      "name": "createAuction",
      "outputs": [
        {
          "internalType": "uint256",
          "name": "",
          "type": "uint256"
        }
      ],
      "stateMutability": "nonpayable",
      "type": "function"
    },
    {
      "inputs": [
        {
          "internalType": "uint256",
          "name": "auctionIndex",
          "type": "uint256"
        },
        {
          "internalType": "uint256",
          "name": "amount",
          "type": "uint256"
        }
      ],
      "name": "bid",
      "outputs": [
        {
          "internalType": "bool",
          "name": "",
          "type": "bool"
        }
      ],
      "stateMutability": "nonpayable",
      "type": "function"
    },
    {
      "inputs": [
        {
          "internalType": "uint256",
          "name": "auctionIndex",
          "type": "uint256"
        }
      ],
      "name": "isClaimedNFT",
      "outputs": [
        {
          "internalType": "bool",
          "name": "",
          "type": "bool"
        }
      ],
      "stateMutability": "view",
      "type": "function"
    },
    {
      "inputs": [],
      "name": "getTotalAuctions",
      "outputs": [
        {
          "internalType": "uint256",
          "name": "",
          "type": "uint256"
        }
      ],
      "stateMutability": "view",
      "type": "function"
    },
    {
      "inputs": [
        {
          "internalType": "uint256",
          "name": "index",
          "type": "uint256"
        }
      ],
      "name": "isActive",
      "outputs": [
        {
          "internalType": "bool",
          "name": "",
          "type": "bool"
        }
      ],
      "stateMutability": "view",
      "type": "function"
    },
    {
      "inputs": [
        {
          "internalType": "uint256",
          "name": "index",
          "type": "uint256"
        }
      ],
      "name": "isFinished",
      "outputs": [
        {
          "internalType": "bool",
          "name": "",
          "type": "bool"
        }
      ],
      "stateMutability": "view",
      "type": "function"
    },
    {
      "inputs": [
        {
          "internalType": "uint256",
          "name": "index",
          "type": "uint256"
        }
      ],
      "name": "getStatus",
      "outputs": [
        {
          "internalType": "enum TotemAuction.Status",
          "name": "",
          "type": "uint8"
        }
      ],
      "stateMutability": "view",
      "type": "function"
    },
    {
      "inputs": [
        {
          "internalType": "uint256",
          "name": "auctionIndex",
          "type": "uint256"
        }
      ],
      "name": "getCurrentBidOwner",
      "outputs": [
        {
          "internalType": "address",
          "name": "",
          "type": "address"
        }
      ],
      "stateMutability": "view",
      "type": "function"
    },
    {
      "inputs": [
        {
          "internalType": "uint256",
          "name": "auctionIndex",
          "type": "uint256"
        }
      ],
      "name": "getCurrentBidAmount",
      "outputs": [
        {
          "internalType": "uint256",
          "name": "",
          "type": "uint256"
        }
      ],
      "stateMutability": "view",
      "type": "function"
    },
    {
      "inputs": [
        {
          "internalType": "uint256",
          "name": "auctionIndex",
          "type": "uint256"
        }
      ],
      "name": "getBidCount",
      "outputs": [
        {
          "internalType": "uint256",
          "name": "",
          "type": "uint256"
        }
      ],
      "stateMutability": "view",
      "type": "function"
    },
    {
      "inputs": [
        {
          "internalType": "uint256",
          "name": "auctionIndex",
          "type": "uint256"
        }
      ],
      "name": "getWinner",
      "outputs": [
        {
          "internalType": "address",
          "name": "",
          "type": "address"
        }
      ],
      "stateMutability": "view",
      "type": "function"
    },
    {
      "inputs": [
        {
          "internalType": "uint256",
          "name": "auctionIndex",
          "type": "uint256"
        }
      ],
      "name": "getEndTime",
      "outputs": [
        {
          "internalType": "uint256",
          "name": "",
          "type": "uint256"
        }
      ],
      "stateMutability": "view",
      "type": "function"
    },
    {
      "inputs": [
        {
          "internalType": "uint256",
          "name": "auctionIndex",
          "type": "uint256"
        }
      ],
      "name": "burntem",
      "outputs": [],
      "stateMutability": "nonpayable",
      "type": "function"
    },
    {
      "inputs": [
        {
          "internalType": "uint256",
          "name": "auctionIndex",
          "type": "uint256"
        }
      ],
      "name": "claimtotem",
      "outputs": [],
      "stateMutability": "nonpayable",
      "type": "function"
    }
  ],
  "bytecode": "0x608060405234801561001057600080fd5b506040516120543803806120548339818101604052604081101561003357600080fd5b810190808051906020019092919080519060200190929190505050600061005e61018560201b60201c565b9050806000806101000a81548173ffffffffffffffffffffffffffffffffffffffff021916908373ffffffffffffffffffffffffffffffffffffffff1602179055508073ffffffffffffffffffffffffffffffffffffffff16600073ffffffffffffffffffffffffffffffffffffffff167f8be0079c531659141344cd1fd0a4f28419497f9722a3daafe3b4186f6b6457e060405160405180910390a35081600260006101000a81548173ffffffffffffffffffffffffffffffffffffffff021916908373ffffffffffffffffffffffffffffffffffffffff16021790555080600160006101000a81548173ffffffffffffffffffffffffffffffffffffffff021916908373ffffffffffffffffffffffffffffffffffffffff160217905550505061018d565b600033905090565b611eb88061019c6000396000f3fe608060405234801561001057600080fd5b506004361061012c5760003560e01c8063744d3411116100ad578063be459f6211610071578063be459f6214610531578063e8153c9314610577578063e8ba6509146105c1578063ed7c5f0a14610607578063f2fde38b146106515761012c565b8063744d3411146103af57806382afd23b146103f157806386b46073146104375780638da5cb5b146104a55780639067b677146104ef5761012c565b8063598647f8116100f4578063598647f8146102795780635b6007e4146102c95780635c622a0e146103135780636975846a14610363578063715018a6146103a55761012c565b80630b71b024146101315780633ef14cc81461015f5780634129b2c91461017d578063431f21da146101eb578063580a5f2e1461024b575b600080fd5b61015d6004803603602081101561014757600080fd5b8101908080359060200190929190505050610695565b005b6101676108f1565b6040518082815260200191505060405180910390f35b6101a96004803603602081101561019357600080fd5b81019080803590602001909291905050506108fe565b604051808273ffffffffffffffffffffffffffffffffffffffff1673ffffffffffffffffffffffffffffffffffffffff16815260200191505060405180910390f35b6102356004803603608081101561020157600080fd5b8101908080359060200190929190803590602001909291908035906020019092919080359060200190929190505050610958565b6040518082815260200191505060405180910390f35b6102776004803603602081101561026157600080fd5b8101908080359060200190929190505050610d7a565b005b6102af6004803603604081101561028f57600080fd5b810190808035906020019092919080359060200190929190505050610f7d565b604051808215151515815260200191505060405180910390f35b6102d161152a565b604051808273ffffffffffffffffffffffffffffffffffffffff1673ffffffffffffffffffffffffffffffffffffffff16815260200191505060405180910390f35b61033f6004803603602081101561032957600080fd5b8101908080359060200190929190505050611550565b6040518082600281111561034f57fe5b60ff16815260200191505060405180910390f35b61038f6004803603602081101561037957600080fd5b81019080803590602001909291905050506115fa565b6040518082815260200191505060405180910390f35b6103ad611622565b005b6103db600480360360208110156103c557600080fd5b81019080803590602001909291905050506117aa565b6040518082815260200191505060405180910390f35b61041d6004803603602081101561040757600080fd5b81019080803590602001909291905050506117d2565b604051808215151515815260200191505060405180910390f35b6104636004803603602081101561044d57600080fd5b81019080803590602001909291905050506117fd565b604051808273ffffffffffffffffffffffffffffffffffffffff1673ffffffffffffffffffffffffffffffffffffffff16815260200191505060405180910390f35b6104ad611845565b604051808273ffffffffffffffffffffffffffffffffffffffff1673ffffffffffffffffffffffffffffffffffffffff16815260200191505060405180910390f35b61051b6004803603602081101561050557600080fd5b810190808035906020019092919050505061186e565b6040518082815260200191505060405180910390f35b61055d6004803603602081101561054757600080fd5b81019080803590602001909291905050506118c6565b604051808215151515815260200191505060405180910390f35b61057f6118fb565b604051808273ffffffffffffffffffffffffffffffffffffffff1673ffffffffffffffffffffffffffffffffffffffff16815260200191505060405180910390f35b6105ed600480360360208110156105d757600080fd5b8101908080359060200190929190505050611921565b604051808215151515815260200191505060405180910390f35b61060f61194b565b604051808273ffffffffffffffffffffffffffffffffffffffff1673ffffffffffffffffffffffffffffffffffffffff16815260200191505060405180910390f35b6106936004803603602081101561066757600080fd5b81019080803573ffffffffffffffffffffffffffffffffffffffff169060200190929190505050611950565b005b61069d611b5d565b73ffffffffffffffffffffffffffffffffffffffff166000809054906101000a900473ffffffffffffffffffffffffffffffffffffffff1673ffffffffffffffffffffffffffffffffffffffff161461075e576040517f08c379a00000000000000000000000000000000000000000000000000000000081526004018080602001828103825260208152602001807f4f776e61626c653a2063616c6c6572206973206e6f7420746865206f776e657281525060200191505060405180910390fd5b61076781611921565b61077057600080fd5b60006003828154811061077f57fe5b9060005260206000209060070201905060006107a960648360030154611b6590919063ffffffff16565b905060006107c4828460030154611baf90919063ffffffff16565b9050600160009054906101000a900473ffffffffffffffffffffffffffffffffffffffff1673ffffffffffffffffffffffffffffffffffffffff1663a9059cbb600d836040518363ffffffff1660e01b8152600401808373ffffffffffffffffffffffffffffffffffffffff1673ffffffffffffffffffffffffffffffffffffffff16815260200182815260200192505050602060405180830381600087803b15801561087057600080fd5b505af1158015610884573d6000803e3d6000fd5b505050506040513d602081101561089a57600080fd5b81019080805190602001909291905050506108b457600080fd5b7fc8c3ed58526af141410714f4a0528898456ce39cab362f453e1b11c625c976be846040518082815260200191505060405180910390a150505050565b6000600380549050905090565b600061090982611921565b61091257600080fd5b6003828154811061091f57fe5b906000526020600020906007020160040160009054906101000a900473ffffffffffffffffffffffffffffffffffffffff169050919050565b6000610962611b5d565b73ffffffffffffffffffffffffffffffffffffffff166000809054906101000a900473ffffffffffffffffffffffffffffffffffffffff1673ffffffffffffffffffffffffffffffffffffffff1614610a23576040517f08c379a00000000000000000000000000000000000000000000000000000000081526004018080602001828103825260208152602001807f4f776e61626c653a2063616c6c6572206973206e6f7420746865206f776e657281525060200191505060405180910390fd5b3373ffffffffffffffffffffffffffffffffffffffff16600260009054906101000a900473ffffffffffffffffffffffffffffffffffffffff1673ffffffffffffffffffffffffffffffffffffffff16636352211e876040518263ffffffff1660e01b81526004018082815260200191505060206040518083038186803b158015610aad57600080fd5b505afa158015610ac1573d6000803e3d6000fd5b505050506040513d6020811015610ad757600080fd5b810190808051906020019092919050505073ffffffffffffffffffffffffffffffffffffffff1614610b0857600080fd5b3073ffffffffffffffffffffffffffffffffffffffff16600260009054906101000a900473ffffffffffffffffffffffffffffffffffffffff1673ffffffffffffffffffffffffffffffffffffffff1663081812fc876040518263ffffffff1660e01b81526004018082815260200191505060206040518083038186803b158015610b9257600080fd5b505afa158015610ba6573d6000803e3d6000fd5b505050506040513d6020811015610bbc57600080fd5b810190808051906020019092919050505073ffffffffffffffffffffffffffffffffffffffff1614610bed57600080fd5b6000831415610bfa574292505b610c02611e07565b6040518060e00160405280878152602001858152602001848152602001868152602001600073ffffffffffffffffffffffffffffffffffffffff1681526020016000815260200160001515815250905060038190806001815401808255809150506001900390600052602060002090600702016000909190919091506000820151816000015560208201518160010155604082015181600201556060820151816003015560808201518160040160006101000a81548173ffffffffffffffffffffffffffffffffffffffff021916908373ffffffffffffffffffffffffffffffffffffffff16021790555060a0820151816005015560c08201518160060160006101000a81548160ff02191690831515021790555050506000610d346001600380549050611baf90919063ffffffff16565b90507f331eda42eb8c587db6a0d4ff9f2d3e909935c25fde460a7595a8a42c7fe48a64816040518082815260200191505060405180910390a18092505050949350505050565b610d8381611921565b610d8c57600080fd5b600060038281548110610d9b57fe5b906000526020600020906007020190506000610db6836108fe565b90503373ffffffffffffffffffffffffffffffffffffffff168173ffffffffffffffffffffffffffffffffffffffff1614610df057600080fd5b600260009054906101000a900473ffffffffffffffffffffffffffffffffffffffff1673ffffffffffffffffffffffffffffffffffffffff166323b872dd610e36611845565b8385600001546040518463ffffffff1660e01b8152600401808473ffffffffffffffffffffffffffffffffffffffff1673ffffffffffffffffffffffffffffffffffffffff1681526020018373ffffffffffffffffffffffffffffffffffffffff1673ffffffffffffffffffffffffffffffffffffffff1681526020018281526020019350505050600060405180830381600087803b158015610ed857600080fd5b505af1158015610eec573d6000803e3d6000fd5b5050505060018260060160006101000a81548160ff0219169083151502179055507fe1d3206287674bfe662ae3c618dad632b80ed89e08b7fe0f160ef9bac382ea028382604051808381526020018273ffffffffffffffffffffffffffffffffffffffff1673ffffffffffffffffffffffffffffffffffffffff1681526020019250505060405180910390a1505050565b60008060038481548110610f8d57fe5b90600052602060002090600702019050610fa6846117d2565b610faf57600080fd5b806003015483111561151e57600160009054906101000a900473ffffffffffffffffffffffffffffffffffffffff1673ffffffffffffffffffffffffffffffffffffffff166323b872dd3330866040518463ffffffff1660e01b8152600401808473ffffffffffffffffffffffffffffffffffffffff1673ffffffffffffffffffffffffffffffffffffffff1681526020018373ffffffffffffffffffffffffffffffffffffffff1673ffffffffffffffffffffffffffffffffffffffff1681526020018281526020019350505050602060405180830381600087803b15801561109857600080fd5b505af11580156110ac573d6000803e3d6000fd5b505050506040513d60208110156110c257600080fd5b81019080805190602001909291905050506110dc57600080fd5b600073ffffffffffffffffffffffffffffffffffffffff168160040160009054906101000a900473ffffffffffffffffffffffffffffffffffffffff1673ffffffffffffffffffffffffffffffffffffffff1614611435576000600260009054906101000a900473ffffffffffffffffffffffffffffffffffffffff1673ffffffffffffffffffffffffffffffffffffffff1663b4571ba86040518163ffffffff1660e01b815260040160206040518083038186803b15801561119e57600080fd5b505afa1580156111b2573d6000803e3d6000fd5b505050506040513d60208110156111c857600080fd5b810190808051906020019092919050505014156112f157600160009054906101000a900473ffffffffffffffffffffffffffffffffffffffff1673ffffffffffffffffffffffffffffffffffffffff1663a9059cbb8260040160009054906101000a900473ffffffffffffffffffffffffffffffffffffffff1683600301546040518363ffffffff1660e01b8152600401808373ffffffffffffffffffffffffffffffffffffffff1673ffffffffffffffffffffffffffffffffffffffff16815260200182815260200192505050602060405180830381600087803b1580156112b057600080fd5b505af11580156112c4573d6000803e3d6000fd5b505050506040513d60208110156112da57600080fd5b810190808051906020019092919050505050611434565b600061130b60648360030154611b6590919063ffffffff16565b90506000611326828460030154611baf90919063ffffffff16565b9050600160009054906101000a900473ffffffffffffffffffffffffffffffffffffffff1673ffffffffffffffffffffffffffffffffffffffff1663a9059cbb8460040160009054906101000a900473ffffffffffffffffffffffffffffffffffffffff16836040518363ffffffff1660e01b8152600401808373ffffffffffffffffffffffffffffffffffffffff1673ffffffffffffffffffffffffffffffffffffffff16815260200182815260200192505050602060405180830381600087803b1580156113f557600080fd5b505af1158015611409573d6000803e3d6000fd5b505050506040513d602081101561141f57600080fd5b81019080805190602001909291905050505050505b5b828160030181905550338160040160006101000a81548173ffffffffffffffffffffffffffffffffffffffff021916908373ffffffffffffffffffffffffffffffffffffffff16021790555061149960018260050154611bf990919063ffffffff16565b81600501819055507f1b577ce01ba80fee478cbdf67b4e38f2b901599460f21b5c8bb27f4aac0057c6843385604051808481526020018373ffffffffffffffffffffffffffffffffffffffff1673ffffffffffffffffffffffffffffffffffffffff168152602001828152602001935050505060405180910390a16001915050611524565b60009150505b92915050565b600260009054906101000a900473ffffffffffffffffffffffffffffffffffffffff1681565b6000806003838154811061156057fe5b9060005260206000209060070201905080600101544210156115865760009150506115f5565b6115a181600201548260010154611bf990919063ffffffff16565b4210156115b25760019150506115f5565b6115cd81600201548260010154611bf990919063ffffffff16565b42101580156115e0575060008160050154145b156115ef5760019150506115f5565b60029150505b919050565b60006003828154811061160957fe5b9060005260206000209060070201600301549050919050565b61162a611b5d565b73ffffffffffffffffffffffffffffffffffffffff166000809054906101000a900473ffffffffffffffffffffffffffffffffffffffff1673ffffffffffffffffffffffffffffffffffffffff16146116eb576040517f08c379a00000000000000000000000000000000000000000000000000000000081526004018080602001828103825260208152602001807f4f776e61626c653a2063616c6c6572206973206e6f7420746865206f776e657281525060200191505060405180910390fd5b600073ffffffffffffffffffffffffffffffffffffffff166000809054906101000a900473ffffffffffffffffffffffffffffffffffffffff1673ffffffffffffffffffffffffffffffffffffffff167f8be0079c531659141344cd1fd0a4f28419497f9722a3daafe3b4186f6b6457e060405160405180910390a360008060006101000a81548173ffffffffffffffffffffffffffffffffffffffff021916908373ffffffffffffffffffffffffffffffffffffffff160217905550565b6000600382815481106117b957fe5b9060005260206000209060070201600501549050919050565b6000600160028111156117e157fe5b6117ea83611550565b60028111156117f557fe5b149050919050565b60006003828154811061180c57fe5b906000526020600020906007020160040160009054906101000a900473ffffffffffffffffffffffffffffffffffffffff169050919050565b60008060009054906101000a900473ffffffffffffffffffffffffffffffffffffffff16905090565b60006118bf6003838154811061188057fe5b9060005260206000209060070201600201546003848154811061189f57fe5b906000526020600020906007020160010154611bf990919063ffffffff16565b9050919050565b6000600382815481106118d557fe5b906000526020600020906007020160060160009054906101000a900460ff169050919050565b600160009054906101000a900473ffffffffffffffffffffffffffffffffffffffff1681565b600060028081111561192f57fe5b61193883611550565b600281111561194357fe5b149050919050565b600d81565b611958611b5d565b73ffffffffffffffffffffffffffffffffffffffff166000809054906101000a900473ffffffffffffffffffffffffffffffffffffffff1673ffffffffffffffffffffffffffffffffffffffff1614611a19576040517f08c379a00000000000000000000000000000000000000000000000000000000081526004018080602001828103825260208152602001807f4f776e61626c653a2063616c6c6572206973206e6f7420746865206f776e657281525060200191505060405180910390fd5b600073ffffffffffffffffffffffffffffffffffffffff168173ffffffffffffffffffffffffffffffffffffffff161415611a9f576040517f08c379a0000000000000000000000000000000000000000000000000000000008152600401808060200182810382526026815260200180611e5d6026913960400191505060405180910390fd5b8073ffffffffffffffffffffffffffffffffffffffff166000809054906101000a900473ffffffffffffffffffffffffffffffffffffffff1673ffffffffffffffffffffffffffffffffffffffff167f8be0079c531659141344cd1fd0a4f28419497f9722a3daafe3b4186f6b6457e060405160405180910390a3806000806101000a81548173ffffffffffffffffffffffffffffffffffffffff021916908373ffffffffffffffffffffffffffffffffffffffff16021790555050565b600033905090565b6000611ba783836040518060400160405280601a81526020017f536166654d6174683a206469766973696f6e206279207a65726f000000000000815250611c81565b905092915050565b6000611bf183836040518060400160405280601e81526020017f536166654d6174683a207375627472616374696f6e206f766572666c6f770000815250611d47565b905092915050565b600080828401905083811015611c77576040517f08c379a000000000000000000000000000000000000000000000000000000000815260040180806020018281038252601b8152602001807f536166654d6174683a206164646974696f6e206f766572666c6f77000000000081525060200191505060405180910390fd5b8091505092915050565b60008083118290611d2d576040517f08c379a00000000000000000000000000000000000000000000000000000000081526004018080602001828103825283818151815260200191508051906020019080838360005b83811015611cf2578082015181840152602081019050611cd7565b50505050905090810190601f168015611d1f5780820380516001836020036101000a031916815260200191505b509250505060405180910390fd5b506000838581611d3957fe5b049050809150509392505050565b6000838311158290611df4576040517f08c379a00000000000000000000000000000000000000000000000000000000081526004018080602001828103825283818151815260200191508051906020019080838360005b83811015611db9578082015181840152602081019050611d9e565b50505050905090810190601f168015611de65780820380516001836020036101000a031916815260200191505b509250505060405180910390fd5b5060008385039050809150509392505050565b6040518060e0016040528060008152602001600081526020016000815260200160008152602001600073ffffffffffffffffffffffffffffffffffffffff16815260200160008152602001600015158152509056fe4f776e61626c653a206e6577206f776e657220697320746865207a65726f2061646472657373a26469706673582212202a51b18d4765c948407267741ca20562ba47edec3b73a78942d721011fe764cd64736f6c63430006020033",
  "source": "pragma solidity ^0.6.2;\n\nimport \"./TotemNFT.sol\";\nimport \"./TotemToken.sol\";\nimport \"@openzeppelin/contracts/utils/Address.sol\";\nimport \"@openzeppelin/contracts/math/SafeMath.sol\";\nimport \"@openzeppelin/contracts/access/Ownable.sol\";\n\ncontract TotemAuction is Ownable {\n    using SafeMath for uint256;\n    using Address for address;\n    \n\n    event Auction_Created(uint256 _index);\n    event Auction_BID(uint256 _index, address _bidder, uint256 amount);\n    event ClaimTOTEM(uint256 auctionIndex, address claimer);\n    event BurnTEM(uint256 auctionIndex);\n\n    TotemToken public totemToken;\n    TotemNFT public totemNFT;\n    address public constant BURNADDRESS = 0x000000000000000000000000000000000000000d;\n\n    constructor(TotemNFT _totemNFT, TotemToken _totemToken) public {\n    totemNFT = _totemNFT; \n    totemToken = _totemToken;\n    }\n\n    enum Status { pending, active, finished }\n\n    struct Auction {\n        uint256 assetId;\n        uint256 startTime;\n        uint256 duration;\n        uint256 currentBidAmount;\n        address currentBidOwner;\n        uint256 bidCount;\n        bool claimedNFT;\n    }\n    Auction[] private auctions;\n\n    function createAuction(uint256 _assetId,\n                           uint256 _startPrice,\n                           uint256 _startTime,\n                           uint256 _duration) public onlyOwner returns (uint256) {\n\n        require(totemNFT.ownerOf(_assetId) == msg.sender);\n        require(totemNFT.getApproved(_assetId) == address(this));\n\n        if (_startTime == 0) { _startTime = now; }\n\n        Auction memory auction = Auction({\n            assetId: _assetId,\n            startTime: _startTime,\n            duration: _duration,\n            currentBidAmount: _startPrice,\n            currentBidOwner: address(0),\n            bidCount: 0,\n            claimedNFT: false\n        });\n        auctions.push(auction);\n        uint256 index = auctions.length.sub(1);\n\n        emit Auction_Created(index);\n\n        return index;\n    }\n\n    function bid(uint256 auctionIndex, uint256 amount) public returns (bool) {\n        Auction storage auction = auctions[auctionIndex];\n        require(isActive(auctionIndex));\n\n        if (amount > auction.currentBidAmount) {\n            // we got a better bid. Return tokens to the previous best bidder\n            // and register the sender as `currentBidOwner`\n            \n            require(totemToken.transferFrom(msg.sender, address(this), amount));\n            if (auction.currentBidOwner != address(0)) {\n                // return funds to the previuos bidder\n                if (totemNFT.totemOwnersNow() == 0) {\n                totemToken.transfer(\n                    auction.currentBidOwner,\n                    auction.currentBidAmount\n                );\n                } else {  \n                uint256 rFee = auction.currentBidAmount.div(100);\n                uint256 rReturnAmount = auction.currentBidAmount.sub(rFee);\n                totemToken.transfer(\n                    auction.currentBidOwner,\n                    rReturnAmount\n                );\n                }\n            }\n            // register new bidder\n            auction.currentBidAmount = amount;\n            auction.currentBidOwner = msg.sender;\n            auction.bidCount = auction.bidCount.add(1);\n\n            emit Auction_BID(auctionIndex, msg.sender, amount);\n            return true;\n        }\n        return false;\n    }\n\n    function isClaimedNFT(uint256 auctionIndex) public view returns (bool) {\n        return auctions[auctionIndex].claimedNFT;\n    }\n\n    function getTotalAuctions() public view returns (uint256) { return auctions.length; }\n\n    function isActive(uint256 index) public view returns (bool) { return getStatus(index) == Status.active; }\n\n    function isFinished(uint256 index) public view returns (bool) { return getStatus(index) == Status.finished; }\n\n    function getStatus(uint256 index) public view returns (Status) {\n        Auction storage auction = auctions[index];\n        if (now < auction.startTime) {\n            return Status.pending;\n        } else if (now < auction.startTime.add(auction.duration)) {\n            return Status.active;\n        } else if (now >= auction.startTime.add(auction.duration) && auction.bidCount == 0) {\n            return Status.active;    \n        } else {\n            return Status.finished;\n        }\n    }\n\n    function getCurrentBidOwner(uint256 auctionIndex) public view returns (address) { return auctions[auctionIndex].currentBidOwner; }\n\n    function getCurrentBidAmount(uint256 auctionIndex) public view returns (uint256) { return auctions[auctionIndex].currentBidAmount; }\n\n    function getBidCount(uint256 auctionIndex) public view returns (uint256) { return auctions[auctionIndex].bidCount; }\n\n    function getWinner(uint256 auctionIndex) public view returns (address) {\n        require(isFinished(auctionIndex));\n        return auctions[auctionIndex].currentBidOwner;\n    }\n\n    function getEndTime(uint256 auctionIndex) public view returns (uint256) {\n        return auctions[auctionIndex].startTime.add(auctions[auctionIndex].duration);\n    }\n\n    function burntem(uint256 auctionIndex) public onlyOwner {\n        require(isFinished(auctionIndex));\n        Auction storage auction = auctions[auctionIndex];\n        uint256 bFee = auction.currentBidAmount.div(100);\n        uint256 bBurnAmount = auction.currentBidAmount.sub(bFee);\n        require(totemToken.transfer(BURNADDRESS, bBurnAmount));\n\n        emit BurnTEM(auctionIndex);\n    }\n\n    function claimtotem(uint256 auctionIndex) public {\n        require(isFinished(auctionIndex));\n        Auction storage auction = auctions[auctionIndex];\n\n        address winner = getWinner(auctionIndex);\n        require(winner == msg.sender);\n\n        \n        totemNFT.transferFrom(owner(), winner, auction.assetId);\n        \n        auction.claimedNFT = true;\n\n        emit ClaimTOTEM(auctionIndex, winner);\n    }\n\n}",
  "sourcePath": "/Users/dev/work/code/totemfinance/contracts/TotemAuction.sol",
  "compiler": {
    "name": "solc",
    "version": "0.6.2+commit.bacdbe57.Emscripten.clang"
  },
  "schemaVersion": "3.3.4",
  "updatedAt": "2021-03-20T04:56:18.443Z",
  "devdoc": {
    "methods": {
      "owner()": {
        "details": "Returns the address of the current owner."
      },
      "renounceOwnership()": {
        "details": "Leaves the contract without owner. It will not be possible to call `onlyOwner` functions anymore. Can only be called by the current owner.     * NOTE: Renouncing ownership will leave the contract without an owner, thereby removing any functionality that is only available to the owner."
      },
      "transferOwnership(address)": {
        "details": "Transfers ownership of the contract to a new account (`newOwner`). Can only be called by the current owner."
      }
    }
  },
  "userdoc": {
    "methods": {}
  }
}